:100000000C9462000C948A000C948A000C948A0070
:100010000C948A000C948A000C948A000C948A0038
:100020000C948A000C948A000C948A000C948A0028
:100030000C948A000C948A000C948A000C948A0018
:100040000C941B0D0C948A000C948B0D0C94650D74
:100050000C948A000C948A000C948A000C948A00F8
:100060000C948A000C948A000000000024002700F1
:100070002A0000000000250028002B0000000000DE
:1000800023002600290004040404040404040202DA
:100090000202020203030303030301020408102007
:1000A0004080010204081020010204081020000012
:1000B0000008000201000003040700000000000027
:1000C0000000CD0E11241FBECFEFD8E0DEBFCDBFA4
:1000D00023E0A4EFB2E001C01D92A13EB207E1F718
:1000E00012E0A0E0B1E0E2EDF3E202C005900D9273
:1000F000A43FB107D9F710E0C2E6D0E004C02197D1
:10010000FE010E94C40FC136D107C9F70E94BD0D80
:100110000C94E7110C9400000895AF92BF92CF9217
:10012000DF92EF92FF920F931F93CF93DF936C01B7
:100130007B018B01040F151FEB015E01AE18BF0898
:10014000C017D10759F06991D601ED91FC9101904A
:10015000F081E02DC6010995892B79F7C501DF9162
:10016000CF911F910F91FF90EF90DF90CF90BF90B4
:10017000AF900895FC01538D448D252F30E0842FDE
:1001800090E0821B930B541710F0CF9608950197BF
:100190000895FC01918D828D981761F0A28DAE0FAC
:1001A000BF2FB11D5D968C91928D9F5F9F73928F33
:1001B00090E008958FEF9FEF0895FC01918D828D5F
:1001C000981731F0828DE80FF11D858D90E008952C
:1001D0008FEF9FEF0895FC01918D228D892F90E084
:1001E000805C9F4F821B91098F739927089580E44B
:1001F00093E00E94EB0021E0892B09F420E0822F9C
:10020000089580E090E0892B29F00E94F700811189
:100210000C9400000895FC01A48DA80FB92FB11D06
:10022000A35ABF4F2C91848D90E001968F7399272C
:10023000848FA689B7892C93A089B1898C9183700A
:1002400080648C93938D848D981306C00288F38903
:10025000E02D80818F7D80830895EF92FF920F9330
:100260001F93CF93DF93EC0181E0888F9B8D8C8D62
:1002700098131AC0E889F989808185FF15C09FB756
:10028000F894EE89FF896083E889F9898081837019
:10029000806480839FBF81E090E0DF91CF911F91C8
:1002A0000F91FF90EF900895F62E0B8D10E00F5FE9
:1002B0001F4F0F731127E02E8C8D8E110CC00FB6BF
:1002C00007FCFACFE889F989808185FFF5CFCE0157
:1002D0000E940B01F1CFEB8DEC0FFD2FF11DE35AC6
:1002E000FF4FF0829FB7F8940B8FEA89FB898081DA
:1002F0008062CFCFCF93DF93EC01888D8823B9F054
:10030000AA89BB89E889F9898C9185FD03C0808120
:1003100086FD0DC00FB607FCF7CF8C9185FFF2CF9D
:10032000808185FFEDCFCE010E940B01E9CFDF91E7
:10033000CF910895833081F028F4813099F0823094
:10034000A9F008958730A9F08830C9F08430B1F45D
:10035000809180008F7D03C0809180008F77809393
:100360008000089584B58F7784BD089584B58F7D0E
:10037000FBCF8091B0008F778093B000089580917B
:10038000B0008F7DF9CF1F93CF93DF93282F30E0FC
:10039000F901E255FF4F8491F901E656FF4FD491E0
:1003A000F901EA57FF4FC491CC23A9F0162F811110
:1003B0000E949A01EC2FF0E0EE0FFF1FEE58FF4F66
:1003C000A591B4918FB7F894EC91111108C0D09514
:1003D000DE23DC938FBFDF91CF911F910895DE2B39
:1003E000F8CFCF93DF9390E0FC01E656FF4F2491C6
:1003F0008A579F4FFC0184918823D1F090E0880FA9
:10040000991FFC01E859FF4FA591B491FC01EE58EA
:10041000FF4FC591D49161110EC09FB7F8948C9194
:10042000E22FE0958E238C932881E223E8839FBFFF
:10043000DF91CF9108958FB7F894EC91E22BEC9374
:100440008FBFF6CF27E030E090E0AC01022E02C073
:10045000559547950A94E2F740FF07C02A9A2C9ACF
:100460002C982150310988F708952A98F8CFCF9316
:10047000C82F2B98892F0E9422028C2F0E942202C3
:100480002B9ACF910895BF92CF92DF92EF92FF9275
:100490000F931F93CF93DF930E94370210E0D0E0B9
:1004A000C0E0C12CD12C7601C394FE01E055FF4F72
:1004B0008491FE01E456FF4F0491FE01E857FF4F7F
:1004C000B490BB2041F181110E949A01EB2DF0E024
:1004D000EE0FFF1FE458FF4FA591B491EC91D701A7
:1004E000C6010C2E04C0880F991FAA1FBB1F0A94B7
:1004F000D2F70E2381F0182B2196C830D105A9F62A
:10050000812FDF91CF911F910F91FF90EF90DF909E
:10051000CF90BF900895D701C6010C2E04C0880F5C
:10052000991FAA1FBB1F0A94D2F780951823E4CF06
:10053000CF9361E080E10E94C301C2E060E08C2FB4
:100540000E94C30160E08C2F0E94F101CF5FCA308E
:10055000A9F7CF910895CF9360E08FE00E94C30187
:10056000C2E060E08C2F0E94F101CF5FCA30C9F772
:10057000CF91089581110C94AB0261E08FE00C944F
:10058000C301FC0101900020E9F73197AF01481B3E
:10059000590BBC0180E493E00C948D008F929F92E4
:1005A000AF92BF920F931F93CF93DF93CDB7DEB778
:1005B000A1970FB6F894DEBF0FBECDBF19A242308F
:1005C00008F44AE08E010F5D1F4F842E912CB12C50
:1005D000A12CA50194010E94A20FE62FB901CA0126
:1005E000EA30F4F4E05DD801EE938D01232B242B47
:1005F000252B79F790E080E0109719F0CD010E944B
:10060000C102A1960FB6F894DEBF0FBECDBFDF9139
:10061000CF911F910F91BF90AF909F908F900895B1
:10062000E95CE1CFCF93DF93FC0144815581608188
:10063000718180E493E00E948D00EC0188E191E0FB
:100640000E94C1028C0F9D1FDF91CF910895CF931F
:10065000DF930E94C102EC0188E191E00E94C10297
:100660008C0F9D1FDF91CF910895FC0180819181B6
:10067000009711F00C94FA0E60E070E0CB01089541
:10068000FC0124813581232B39F421E0FB01808199
:10069000882349F020E007C0808191810E94C81121
:1006A00021E0892BB9F7822F08950F931F93CF93E1
:1006B000DF93EC0188819981009759F02A813B8171
:1006C0002617370730F081E0DF91CF911F910F910E
:1006D00008958B016F5F7F4F0E94EF10009759F0D4
:1006E000998388831B830A832C813D81232B59F7AF
:1006F000FC011082E8CF80E0E7CFCF93DF93EC01DD
:1007000088819981009711F00E94661019821882E1
:100710001D821C821B821A82DF91CF910895EF9275
:10072000FF920F931F93CF93DF93EC01FB01E080C7
:10073000F180E114F10411F1048115810115110515
:10074000A9F08C819D81080F191FB801CE010E946C
:100750005503882399F0288139818C819D81B701C7
:10076000820F931F0E94D1111D830C83CE01DF9154
:10077000CF911F910F91FF90EF900895CE010E94AD
:100780007D03F4CFEF92FF920F931F93CF93DF93EC
:10079000EC017B018A01BA010E94550381110BC053
:1007A000CE010E947D03CE01DF91CF911F910F9169
:1007B000FF90EF9008951D830C83B7018881998184
:1007C0000E94D111F0CFFB0101900020E9F7319791
:1007D000AF01461B570B0C94C2030F931F93CF938B
:1007E000DF93CDB7DEB762970FB6F894DEBF0FBECA
:1007F000CDBF8C01CB01F8011182108213821282CD
:10080000158214824AE0BE016F5F7F4F0E94210F64
:10081000BE016F5F7F4FC8010E94E30362960FB66F
:10082000F894DEBF0FBECDBFDF91CF911F910F9126
:100830000895CF93DF93EC01FB018617970749F0EA
:10084000608171816115710541F0448155810E947B
:10085000C203CE01DF91CF9108950E947D03F9CFAD
:10086000FC011182108213821282158214820C9470
:100870001904FC01118210821382128215821482E3
:10088000FB0101900020E9F73197AF01461B570BA0
:100890000C94C203FC0180819181009711F00C94AB
:1008A000661008950F931F93CF93DF93062F0E9436
:1008B000370260E080E10E94C301C2E061E08C2F5A
:1008C0000E94F101CF5FCA30C9F7C9E0D0E010E063
:1008D000CE010297980102C0359527958A95E2F7D7
:1008E00061E020FF60E08C2F0E94C3012197C1309E
:1008F000D10571F7DF91CF911F910F910C94980260
:100900006F927F928F929F92AF92BF92CF92DF921F
:10091000EF92FF920F931F93CF93DF93CDB7DEB784
:100920002C970FB6F894DEBF0FBECDBF6C017B01D4
:10093000FC0184819581892B09F471C000811181AA
:100940006DE370E0C8010E94BD11009709F467C013
:100950009C01201B310B8901B601CE0107960E9434
:1009600030044B855C8541155105C9F0B8016F5FB6
:100970007F4FA9F04617570708F4BA018F81988571
:10098000461B570B5C874B87680F791F0E94D81155
:10099000EF81F8858B859C85E80FF91F1082670130
:1009A000B12CA12C8B849C848114910479F06F80EC
:1009B00078846CE270E0C3010E94BD11009731F0B1
:1009C0008C01061917090F3F100761F51814190457
:1009D0006CF426E02A9DC0012B9D900D1124BE01D0
:1009E000695F7F4F8E0D9F1D0E941904CE010796EF
:1009F0000E944A042C960FB6F894DEBF0FBECDBFFE
:100A0000DF91CF911F910F91FF90EF90DF90CF90EA
:100A1000BF90AF909F908F907F906F9008950FEF51
:100A20001FEF9ACF6AE171E0CE0101960E9439046E
:100A30008B859C850097C9F08017910708F48C017D
:100A4000EF81F885E00FF11F908010826F8178852B
:100A5000CE0101966115710591F10E94E3038F812A
:100A60009885080F191FF8019082F6018081918105
:100A7000009751F169817A816115710519F14281FF
:100A800053812D813E8142175307E0F00E94D1111E
:100A90008D819E81F601958384831E821D82CE0105
:100AA00001960E944A04FFEFAF1ABF0A26E0C20E69
:100AB000D11C3AE0A316B10409F074CF97CF0E947D
:100AC0007D03CDCF0E94661089819A81F6019183C2
:100AD00080838B819C81938382838D819E8195838A
:100AE00084831A8219821C821B82D7CF8F929F9295
:100AF000AF92BF92CF92DF92EF92FF920F931F932C
:100B0000CF93DF93CDB7DEB7C854D1400FB6F8947A
:100B1000DEBF0FBECDBF7C016E0121E0C20ED21E32
:100B200056013CE3A30EB11C86016AE171E0C601E7
:100B30000E94390486E0C80ED11CCA14DB04A9F750
:100B4000F701C080D180C114D10471F0F601819108
:100B50006F01882349F0082E000C990B0E94AC11FC
:100B6000F60131978083F2CF6AE171E0C7010E94FC
:100B70004003811136C78091F402882319F0C70120
:100B80000E941203B701CE01835C9E4F0E94300485
:100B90006AE171E0CE0101960E943904CF5BDE4F1D
:100BA00088819981C154D140892B09F4A9C4C35CBF
:100BB000DE4FC880D980CD53D1406DE370E0C601CF
:100BC0000E94BD11009709F49BC49C012C193D099A
:100BD00069016AE171E0CE018D5B9E4F0E9439048C
:100BE000CF5BDE4F88819981C154D140009739F1A4
:100BF0008C159D0508F46C01C35CDE4FE881F9811A
:100C0000CD53D140EC0DFD1DB0801082C35CDE4F92
:100C100068817981CD53D140CE018D5B9E4F6115A6
:100C2000710509F471C40E94E303C35CDE4F88813F
:100C30009981CD53D140C80ED91EF601B082CE01A4
:100C400001960E944A04CE01835C9E4F0E944A0492
:100C50006BE171E0CE018D5B9E4F0E9440038823C3
:100C6000C9F0B701CE0101960E943004B801CE014F
:100C700001960E948004CE0101960E944A0460E21F
:100C800071E0C8010E944003882309F440C481E058
:100C90008093F40261E572E0CE018D5B9E4F0E946D
:100CA00040038823C9F0B701CE0101960E943004A9
:100CB000B801CE0101960E948004CE0101960E94E7
:100CC0004A0462E271E0C8010E944003882321F0D7
:100CD0008BE291E00E9427036BE371E0CE018D5B14
:100CE0009E4F0E944003882309F454C0B701CE01EF
:100CF00001960E943004B801CE0101960E94800442
:100D0000CE0101960E944A046AE171E0C8010E9486
:100D1000400381113FC0C8010E943503CB010E94EE
:100D20004302C35CDE4F19821882CD53D140C15CAF
:100D3000DE4F19821882CF53D140CF5BDE4F19822C
:100D40001882C154D1404AE0BE016F5F7F4F90E0EE
:100D50000E94410FBE016F5F7F4FCE01835C9E4FAB
:100D60000E94E30364E471E0CE0101960E9439041D
:100D7000BE01635C7E4FCE0101960E948F030E94EC
:100D80001203CE0101960E944A04CE01835C9E4F5D
:100D90000E944A046FE471E0CE018D5B9E4F0E9479
:100DA0004003882309F451C0B701CE0101960E9487
:100DB0003004B801CE0101960E948004CE01019654
:100DC0000E944A0462E271E0C8010E944003882345
:100DD000E1F19E012F5F3F4F590154E3C52EDD2401
:100DE000D3940E94AB02C6010E944302F501819395
:100DF0005F0180E00E94BA02FFEFCF1ADF0A2FE303
:100E0000C21621E0D20669F71C86BE016F5F7F4FD4
:100E1000CE01835C9E4F0E94390468E571E0CE01EB
:100E200001960E943904BE01635C7E4FCE0101969B
:100E30000E948F030E941203CE0101960E944A0471
:100E4000CE01835C9E4F0E944A0463E671E0CE01AE
:100E50008D5B9E4F0E944003882309F457C0B70161
:100E6000CE0101960E943004B801CE0101960E9485
:100E70008004CE0101960E944A0462E271E0C8013A
:100E80000E944003882309F441C0CE01835C9E4F39
:100E90005C014FE3C42EDD24D3940E94AB02C60153
:100EA0000E944302F50181935F0180E00E94BA0233
:100EB000FFEFCF1ADF0A23E4C21621E0D20669F75A
:100EC000CF5BDE4F1882C154D140BE01635C7E4FC0
:100ED000CE0101960E9439046BE671E0CE01835C7D
:100EE0009E4F0E943904BE016F5F7F4FCE01835C2D
:100EF0009E4F0E948F030E941203CE01835C9E4F7F
:100F00000E944A04CE0101960E944A0465E771E0FE
:100F1000CE018D5B9E4F0E9440038823F1F1B70103
:100F2000CE0101960E943004B801CE0101960E94C4
:100F30008004CE0101960E944A0462E271E0C80179
:100F40000E944003882349F10E94AB0283E491E0B0
:100F50000E944302D82E80E00E94BA026D2D70E0FC
:100F6000CE01835C9E4F0E94ED0363E871E0CE01E9
:100F700001960E943904BE01635C7E4FCE0101964A
:100F80000E948F030E941203CE0101960E944A0420
:100F9000CE01835C9E4F0E944A0463E971E0CE015A
:100FA0008D5B9E4F0E944003882309F458C0B7010F
:100FB000CE0101960E943004B801CE0101960E9434
:100FC0008004CE0101960E944A0462E271E0C801E9
:100FD0000E944003882309F442C00E94AB0284E4CB
:100FE00091E00E944302C35CDE4F8883CD53D14021
:100FF00080E00E94BA020E94AB0285E491E00E9468
:101000004302C25CDE4F8883CE53D14080E00E9411
:10101000BA02C15CDE4F1882CF53D140BE01635C7F
:101020007E4FCE0101960E94390460EA71E0CE0144
:10103000835C9E4F0E943904BE016F5F7F4FCE01DB
:10104000835C9E4F0E948F030E941203CE01835C3B
:101050009E4F0E944A04CE0101960E944A046FEA04
:1010600071E0CE018D5B9E4F0E9440038823F1F119
:10107000B701CE0101960E943004B801CE0101965D
:101080000E948004CE0101960E944A0462E271E04F
:10109000C8010E944003882349F10E94AB0286E404
:1010A00091E00E944302D82E80E00E94BA026D2D8A
:1010B00070E0CE01835C9E4F0E94ED036DEB71E00A
:1010C000CE0101960E943904BE01635C7E4FCE01C1
:1010D00001960E948F030E941203CE0101960E9486
:1010E0004A04CE01835C9E4F0E944A046DEC71E07D
:1010F000CE018D5B9E4F0E9440038823F1F1B70122
:10110000CE0101960E943004B801CE0101960E94E2
:101110008004CE0101960E944A0462E271E0C80197
:101120000E944003882349F10E94AB0287E491E0CA
:101130000E944302D82E80E00E94BA026D2D70E01A
:10114000CE01835C9E4F0E94ED0365ED71E0CE0100
:1011500001960E943904BE01635C7E4FCE01019668
:101160000E948F030E941203CE0101960E944A043E
:10117000CE01835C9E4F0E944A046FED71E0CE0168
:101180008D5B9E4F0E9440038823F1F1B701CE0191
:1011900001960E943004B801CE0101960E9480049D
:1011A000CE0101960E944A0462E271E0C8010E94E9
:1011B0004003882349F10E94AB0288E491E00E9439
:1011C0004302D82E80E00E94BA026D2D70E0CE015D
:1011D000835C9E4F0E94ED036AEE71E0CE010196A2
:1011E0000E943904BE01635C7E4FCE0101960E94CD
:1011F0008F030E941203CE0101960E944A04CE0181
:10120000835C9E4F0E944A0467EF71E0CE018D5BC4
:101210009E4F0E9440038823F1F1B701CE01019651
:101220000E943004B801CE0101960E948004CE01D4
:1012300001960E944A0462E271E0C8010E944003E4
:10124000882349F10E94AB0289E491E00E944302A5
:10125000D82E80E00E94BA026D2D70E0CE01835C32
:101260009E4F0E94ED0362E072E0CE0101960E9463
:101270003904BE01635C7E4FCE0101960E948F034C
:101280000E941203CE0101960E944A04CE01835CA3
:101290009E4F0E944A046FE072E0CE018D5B9E4F2C
:1012A0000E9440038823F1F1B701CE0101960E940C
:1012B0003004B801CE0101960E948004CE0101964F
:1012C0000E944A0462E271E0C8010E944003882340
:1012D00049F10E94AB028AE491E00E944302D82EB9
:1012E00080E00E94BA026D2D70E0CE01835C9E4FBB
:1012F0000E94ED036BE172E0CE0101960E94390479
:10130000BE01635C7E4FCE0101960E948F030E9456
:101310001203CE0101960E944A04CE01835C9E4FC7
:101320000E944A0469E272E0CE018D5B9E4F0E94EA
:1013300040038823F1F1B701CE0101960E943004E9
:10134000B801CE0101960E948004CE0101960E9450
:101350004A0462E271E0C8010E944003882349F117
:101360000E94AB028BE491E00E944302D82E80E001
:101370000E94BA026D2D70E0CE01835C9E4F0E94E8
:10138000ED0369E372E0CE0101960E943904BE01CB
:10139000635C7E4FCE0101960E948F030E94120370
:1013A000CE0101960E944A04CE01835C9E4F0E94AA
:1013B0004A046BE472E0CE018D5B9E4F0E944003B5
:1013C0008823F1F1B701CE0101960E943004B801E3
:1013D000CE0101960E948004CE0101960E944A042B
:1013E00062E271E0C8010E944003882349F10E9433
:1013F000AB028CE491E00E944302D82E80E00E9470
:10140000BA026D2D70E0CE01835C9E4F0E94ED0309
:1014100069E572E0CE0101960E943904BE01635C69
:101420007E4FCE0101960E948F030E941203CE01CF
:1014300001960E944A04CE01835C9E4F0E944A049A
:1014400069E672E0CE018D5B9E4F0E9440038823C7
:1014500009F4D5C0B701CE0101960E943004B8014D
:10146000CE0101960E948004CE0101960E944A049A
:1014700062E271E0C8010E944003882309F4BFC002
:101480000E94AB0288E491E00E944302C82ED12C56
:1014900080E00E94BA020E94AB0287E491E00E94C1
:1014A0004302B82E80E00E94BA0231E0C316D10494
:1014B00009F460C068E070E082E0C816D10409F465
:1014C0005BC060E170E093E0C916D10409F465C027
:1014D00060E270E0E4E0CE16D10409F463C0F5E008
:1014E000CF16D10409F056C02B2D2150330B60E4E8
:1014F00070E02330310508F05FC06FE370E05CC03E
:10150000CC24CA94DC2C65CB0E947D038ECB61EF8A
:1015100072E0C8010E944003882319F01092F4027F
:10152000B9CB62E271E0C8010E944003882309F44C
:10153000B1CB6091F40270E0CE01835C9E4F0E94BB
:10154000ED0364E271E0CE0101960E943904BE0110
:10155000635C7E4FCE0101960E948F030E941203AE
:10156000CE0101960E944A04CE01835C9E4F0E94E8
:101570004A0490CB64E070E036E0C316D10469F40D
:10158000EB2DE150FF0B60E870E03397D8F46DE786
:1015900070E018C062E070E0EFCFF7E0CF16D10442
:1015A00009F440C222E5C216D10409F43EC233E573
:1015B000C316D10409F43CC284E5C816D10411F461
:1015C00060E670E0CE01835C9E4F0E94ED0365E70C
:1015D00072E0CE0101960E943904BE01635C7E4F29
:1015E000CE0101960E948F030E941203CE01019644
:1015F0000E944A04CE01835C9E4F0E944A0463E825
:1016000072E0CE018D5B9E4F0E944003882309F457
:1016100052C0B701CE0101960E943004B801CE013C
:1016200001960E948004CE0101960E944A046AE15C
:1016300071E0C8010E94400381113DC0C8010E94B1
:101640003503912C812C161617063CF480E091E2AC
:101650000E945204812C30E4932E0E94AB02D12CC4
:10166000C12CB12CA12CC501880D991D0E944302EB
:10167000E1E0F0E0EC0FFD1FEC0DFD1D80839FEF1E
:10168000C91AD90AC114E1E0DE0659F440E051E07C
:10169000BE016F5F7F4F80E493E00E948D00D12CEC
:1016A000C12CFFEFAF1ABF0AA11420E4B206D9F68D
:1016B00080E00E94BA026FE872E0CE018D5B9E4F1F
:1016C0000E944003882309F458C0B701CE01019657
:1016D0000E943004B801CE0101960E948004CE0120
:1016E00001960E944A0462E271E0C8010E94400330
:1016F000882309F442C00E94AB0289E491E00E9471
:101700004302C82ED12C80E00E94BA0261E070E052
:1017100032E0C316D104A1F064E070E083E0C816A3
:10172000D10471F060E170E094E0C916D10441F099
:1017300068E070E0E5E0CE16D10411F070E060E002
:10174000CE01835C9E4F0E94ED036BE972E0CE01F7
:1017500001960E943904BE01635C7E4FCE01019662
:101760000E948F030E941203CE0101960E944A0438
:10177000CE01835C9E4F0E944A0469EA72E0CE016A
:101780008D5B9E4F0E944003882309F45FC0B70120
:10179000CE0101960E943004B801CE0101960E944C
:1017A0008004CE0101960E944A046AE171E0C801FA
:1017B0000E94400381114AC0C8010E943503D62E01
:1017C00061E08FE00E94C30161E080E10E94C301FB
:1017D00061E08EE00E94C3016AE090E080E00E9438
:1017E00052046D2D80E090E40E9452040E94980201
:1017F00060E08EE00E94C3010E94AB02C12C20EA8F
:10180000D22EC6010E944302682F70E090E080E073
:101810004AE00E94CE0288E191E00E94C102FFEFFF
:10182000CF1ADF0AC11420ECD20659F761E08EE02E
:101830000E94C30180E00E94BA0260E090E080E074
:101840000E94520485EB92E00E94270369EB72E04C
:10185000CE018D5B9E4F0E944003882309F457C040
:10186000B701CE0101960E943004B801CE01019665
:101870000E948004CE0101960E944A046AE171E050
:10188000C8010E944003811142C0C8010E94350373
:10189000D62E61E08FE00E94C30161E080E10E94EA
:1018A000C30161E08EE00E94C3016AE090E080E045
:1018B0000E9452046D2D80E090E40E94520460E08A
:1018C0008EE00E94C301C12C90EAD92E80E493E0FF
:1018D0000E94EB0018161906CCF780E493E00E94F2
:1018E000C900682FC6010E9452043FEFC31AD30AF1
:1018F000C11480ECD80651F761E08EE00E94C3016C
:101900000E94980260E090E080E00E94520466EC41
:1019100072E0CE018D5B9E4F0E944003882309F444
:101920005BC0B701CE0101960E943004B801CE0120
:1019300001960E948004CE0101960E944A0460E252
:1019400071E0C8010E944003882309F445C084E384
:1019500091E00E94430261E08FE00E94C30161E0D8
:1019600080E10E94C30161E08EE00E94C3016AE051
:1019700090E080E00E9452040E94980260E08EE0B5
:101980000E94C3010E94AB02E12C80EAF82EC7013D
:101990000E944302682F70E090E080E04AE00E94DD
:1019A000CE0288E191E00E94C1029FEFE91AF90A94
:1019B000E114E2EAFE0659F761E08EE00E94C301FD
:1019C00080E00E94BA0260E090E080E00E94520451
:1019D00085EB92E00E942703CE018D5B9E4F0E9413
:1019E0004A047801FCE3EF0EF11C26E0E21AF1084C
:1019F000C7010E944A04E016F106B9F7C85BDE4F42
:101A00000FB6F894DEBF0FBECDBFDF91CF911F910F
:101A10000F91FF90EF90DF90CF90BF90AF909F908D
:101A20008F90089560E071E0CDCD68E470E0CACD9C
:101A300060E570E0C7CD1F920F920FB60F92112490
:101A40002F933F938F939F93AF93BF9380913C03CA
:101A500090913D03A0913E03B0913F0330913B0331
:101A600023E0230F2D3758F50196A11DB11D2093BA
:101A70003B0380933C0390933D03A0933E03B093BC
:101A80003F038091370390913803A0913903B091BF
:101A90003A030196A11DB11D80933703909338033B
:101AA000A0933903B0933A03BF91AF919F918F9167
:101AB0003F912F910F900FBE0F901F90189526E821
:101AC000230F0296A11DB11DD2CF1F920F920FB608
:101AD0000F9211242F933F934F935F936F937F93B4
:101AE0008F939F93AF93BF93EF93FF9380E493E023
:101AF0000E940B01FF91EF91BF91AF919F918F9148
:101B00007F916F915F914F913F912F910F900FBEF9
:101B10000F901F9018951F920F920FB60F921124DD
:101B20002F938F939F93EF93FF93E0915003F09146
:101B300051038081E0915603F091570382FD1BC051
:101B40009081809159038F5F8F7320915A03821780
:101B500041F0E0915903F0E0E05CFC4F958F8093F9
:101B60005903FF91EF919F918F912F910F900FBE8D
:101B70000F901F9018958081F4CFCF93DF93CDB74E
:101B8000DEB72C970FB6F894DEBF0FBECDBF7894AA
:101B900084B5826084BD84B5816084BD85B5826072
:101BA00085BD85B5816085BD80916E008160809323
:101BB0006E0010928100809181008260809381008C
:101BC000809181008160809381008091800081609C
:101BD000809380008091B10084608093B1008091F7
:101BE000B00081608093B00080917A00846080931F
:101BF0007A0080917A00826080937A0080917A00E6
:101C0000816080937A0080917A00806880937A0066
:101C10001092C10061E08CE00E94F10161E08AE075
:101C20000E94F10161E08BE00E94F10161E08FE030
:101C30000E94F10161E080E10E94F10161E08EE02B
:101C40000E94F10160E08FE00E94C30161E080E149
:101C50000E94C30161E08EE00E94C30112E060E0D7
:101C6000812F0E94F1011F5F1A30C9F790E080E0D8
:101C70000E943702E0915003F091510382E080838B
:101C8000E0914C03F0914D031082E0914E03F091EE
:101C90004F0383E0808310925803E0915403F09146
:101CA000550386E08083E0915203F09153038081D5
:101CB00080618083E0915203F091530380818860BA
:101CC0008083E0915203F091530380818068808388
:101CD000E0915203F091530380818F7D808382EDE8
:101CE00092E00E9427038AE191E00E94270300E02E
:101CF00010E080E493E00E94EB006AE171E0892B40
:101D000009F180913503909136038034910524F0D8
:101D1000109236031092350380E493E00E94C900CC
:101D20002091350330913603F901EB50FD4F8A3095
:101D300011F08D3051F51082109236031092350358
:101D400065EF72E0CE0107960E943904BE01695F1B
:101D50007F4FCE0101960E943004CE0101960E9471
:101D60007605CE0101960E944A04CE0107960E9494
:101D70004A040115110509F4BCCF0E94F70088231D
:101D800009F4B7CF0E940000B4CF80832F5F3F4F8C
:101D90003093360320933503ACCFE0E4F3E01382B5
:101DA000128288EE93E0A0E0B0E084839583A6835E
:101DB000B7838AE091E09183808385EC90E09587FA
:101DC000848784EC90E09787868780EC90E0918B05
:101DD000808B81EC90E0938B828B82EC90E0958BF2
:101DE000848B86EC90E0978B868B118E128E138EEF
:101DF000148E08951F93FC0199278827BC01E8944D
:101E000011911032E9F3193010F01E30C8F31B3273
:101E100051F01D3249F4689406C00E942C0F610FE6
:101E2000711D811D911D119110531A30B0F33EF4B4
:101E300090958095709561957F4F8F4F9F4F1F9123
:101E40000895BB274A3031F4992322F4BDE29095DE
:101E500081959F4F0C94420F592F482F372F262FD3
:101E6000660F771F881F991F660F771F881F991F9E
:101E7000620F731F841F951F660F771F881F991F9E
:101E80000895BB27FB015527AA27880F991FAA1F72
:101E9000A41710F0A41B83955051B9F7A05DAA3385
:101EA00008F0A95DA193009779F7B111B193119250
:101EB000CB010C945B0FDC01FC01672F7191772340
:101EC000E1F7329704C07C916D9370836291AE17F5
:101ED000BF07C8F308952F923F924F925F926F927F
:101EE0007F928F929F92AF92BF92CF92DF92EF92AA
:101EF000FF920F931F93CF93DF93CDB7DEB7CA1B2B
:101F0000DB0B0FB6F894DEBF0FBECDBF09942A8855
:101F1000398848885F846E847D848C849B84AA84FD
:101F2000B984C884DF80EE80FD800C811B81AA818A
:101F3000B981CE0FD11D0FB6F894DEBF0FBECDBF55
:101F4000ED010895A1E21A2EAA1BBB1BFD010DC0D5
:101F5000AA1FBB1FEE1FFF1FA217B307E407F50759
:101F600020F0A21BB30BE40BF50B661F771F881F35
:101F7000991F1A9469F760957095809590959B01CB
:101F8000AC01BD01CF010895EE0FFF1F0590F49144
:101F9000E02D09940F931F93CF93DF938230910527
:101FA00010F482E090E0E091DF03F091E00330E094
:101FB00020E0B0E0A0E0309799F42115310509F454
:101FC0004AC0281B390B24303105D8F58A819B8102
:101FD0006115710589F1FB0193838283FE0111C0B4
:101FE000408151810281138148175907E0F0481759
:101FF000590799F4109761F012960C931297139663
:102000001C933296CF01DF91CF911F910F910895CC
:102010000093DF031093E003F4CF2115310551F055
:102020004217530738F0A901DB019A01BD01DF0116
:10203000F801C1CFEF01F9CF9093E0038093DF0364
:10204000CDCFFE01E20FF31F81939193225031090E
:1020500039832883D7CF2091DD033091DE03232BF2
:1020600041F420910201309103013093DE0320936B
:10207000DD0320910001309101012115310541F46A
:102080002DB73EB74091040150910501241B350B3B
:10209000E091DD03F091DE03E217F307A0F42E1BBD
:1020A0003F0B2817390778F0AC014E5F5F4F2417BC
:1020B000350748F04E0F5F1F5093DE034093DD035A
:1020C000819391939FCFF0E0E0E09CCFCF93DF939B
:1020D0000097E9F0FC01329713821282A091DF038E
:1020E000B091E003ED0130E020E01097A1F42081F1
:1020F0003181820F931F2091DD033091DE03281779
:10210000390709F061C0F093DE03E093DD03DF914E
:10211000CF910895EA01CE17DF07E8F54A815B8188
:102120009E0141155105B1F7E901FB83EA8349910D
:102130005991C40FD51FEC17FD0761F4808191817F
:102140000296840F951FE901998388838281938188
:102150009B838A83F0E0E0E012968D919C91139727
:102160000097B9F52D913C911197CD010296820F00
:10217000931F2091DD033091DE032817390739F6CC
:10218000309751F51092E0031092DF03B093DE0315
:10219000A093DD03BCCFD383C28340815181840FE0
:1021A000951FC817D90761F44E5F5F4F88819981E9
:1021B000480F591F518340838A819B819383828377
:1021C0002115310509F0B0CFF093E003E093DF0370
:1021D0009ECFFD01DC01C0CF13821282D7CFB0E0C9
:1021E000A0E0E5EFF0E10C946D0F8C01009751F445
:1021F000CB010E94CA0F8C01C801CDB7DEB7E0E168
:102200000C94890FFC01E60FF71F9C012250310945
:10221000E217F30708F49DC0D901CD91DC91119725
:10222000C617D70798F0C530D10530F3CE01049713
:102230008617970708F3C61BD70B2297C193D19334
:102240006D937C93CF010E946610D6CF5B01AC1AD0
:10225000BD0A4C018C0E9D1EA091DF03B091E003DE
:10226000512C412CF12CE12C109731F58091DD039C
:102270009091DE038815990509F05CC04616570653
:1022800008F058C08091000190910101009741F43D
:102290008DB79EB74091040150910501841B950BA9
:1022A000E817F90708F055C0F093DE03E093DD036B
:1022B000F90171836083A0CF8D919C911197129643
:1022C0006C90129713967C901397A815B90559F541
:1022D0006C0142E0C40ED11CCA14DB0420F1AC0135
:1022E0004A195B09DA011296159780F062827382AF
:1022F00051834083D9016D937C93E114F10471F013
:10230000D7011396FC93EE93129776CF22968C0FFB
:102310009D1FF90191838083F301EFCFF093E003D8
:10232000E093DF0369CF4816590608F42C017D01BC
:10233000D3019ACFCB010E94CA0F7C01009749F0CC
:10234000AE01B8010E94B411C8010E946610870155
:1023500053CF10E000E050CF9111089581568A517B
:1023600008F4805285580895FB01DC0102C00190F9
:102370000D9241505040D8F70895FC018191861785
:1023800021F08823D9F7992708953197CF0108952F
:10239000FB01DC018D91019080190110D9F3990B9B
:1023A0000895FB01DC0101900D920020E1F70895F2
:1023B000FB01DC014150504048F001900D9200209B
:1023C000C9F701C01D9241505040E0F70895F894BC
:0223D000FFCF3D
:1023D2000000E1038000000000002D018D00BA0022
:1023E2007A01EB00C900DD000D0A004543484F00A9
:1023F20031003F002B4543484F3D002B5645525379
:10240200494F4E3D302E30323062005245414442F7
:10241200595445002B52454144425954453D0047C9
:1024220045545449544C45002B4745545449544C47
:10243200453D00474554434F4445002B47455443CF
:102442004F44453D00474554434742535550504F32
:102452005254002B474554434742535550504F5214
:10246200543D004745544D414B4552434F4445006E
:102472002B4745544D414B4552434F44453D004740
:102482004554534742535550504F5254002B4745E1
:1024920054534742535550504F52543D00474554B0
:1024A20054595045002B474554545950453D004717
:1024B2004554524F4D53495A45002B474554524FAC
:1024C2004D53495A453D0047455452414D53495A8F
:1024D20045002B47455452414D53495A453D00470B
:1024E200455444455354434F4445002B47455444B7
:1024F200455354434F44453D004745544F4C444D8A
:10250200414B4552434F4445002B4745544F4C44A1
:102512004D414B4552434F44453D00474554524F70
:102522004D56455253494F4E002B474554524F4D3D
:1025320056455253494F4E3D00474554524F4D4226
:10254200414E4B53002B474554524F4D42414E4B47
:10255200533D0044554D50524F4D42414E4B004762
:10256200455452414D42414E4B53002B4745545224
:10257200414D42414E4B533D0044554D5052414D09
:1025820042414E4B002B2B2B00575249544552418E
:102592004D42414E4B0044554D5052414D4D4243E8
:1025A200320047414D4520424F5920434152545237
:1025B200494447452044554D50455220562E312E10
:0425C20030300000B5
:00000001FF
